:020000040800F2
:10000000A0050020AD010008F11A00082B0F000820
:10001000ED1A0008B1080008F726000800000000EB
:10002000000000000000000000000000792500082A
:10003000E5080008000000009D1E000819260008C1
:10004000C7010008C7010008C701000869220008AD
:10005000C7010008C7010008C7010008C701000860
:10006000C7010008C7010008C7010008C701000850
:10007000C7010008C7010008C7010008C701000840
:10008000C7010008C7010008C70100080000000000
:10009000000000000000000000000000C701000890
:1000A000C7010008C7010008C7010008C701000810
:1000B000C7010008C7010008C7010008C701000800
:1000C000C7010008C7010008C7010008C7010008F0
:1000D000C7010008F5260008C7010008000000005D
:1000E000C7010008A11E0008C701000800000000A9
:1000F000000000000000000000000000C701000830
:1001000000000000C7010008C7010008C70100087F
:1001100000000000000000000000000000000000DF
:10012000C7010008C7010008C7010008C70100088F
:10013000C7010008000000000000000000000000EF
:10014000000000000000000000000000C7010008DF
:10015000C7010008C7010008C7010008C70100085F
:10016000C7010008C70100080000000000000000EF
:10017000000000000000000000000000000000007F
:1001800000000000C701000800000000000000009F
:10019000C7010008C7010008DFF80CD000F05AFBC7
:1001A00000480047CD320008A005002006488047DF
:1001B00006480047FEE7FEE7FEE7FEE7FEE7FEE74C
:1001C000FEE7FEE7FEE7FEE78D260008990100083E
:1001D0002DE9FE4F804681EA0300C00F0C460090D7
:1001E00021F0004123F00045B8EB0200A94105D2FF
:1001F0004046214690461C460B46024623F00040EE
:10020000104347D0270DC7F30A00C3F30A510290E9
:10021000401A019040286BDAC3F3130040F4801BAE
:100220000098924620B10023D2EB030A63EB0B0B3C
:1002300001985946C0F14002504600F0D4F90646F4
:100240000D4650465946019A00F0DCF910EB0800C3
:100250006141002487EA115284EAE7731A4340D0CF
:10026000009A62B3019A012A4FEA075215DC001B7B
:1002700061EB02014FF0004202EA0752CDE9004271
:10028000001C41F5801132462B4600F013FA03B0F2
:10029000BDE8F08F40462146F9E7001B61EB020103
:1002A000001C41F5801300185B412018A2F50017CF
:1002B00047EB030140EAD570B6196D4111E06D08B6
:1002C0004FEA360645EAC0754FEA0752001B61EB5C
:1002D0000201001C41F5801149084FEA3000001965
:1002E000514132462B4603B0BDE8F04F00F0D3B980
:1002F0000098012240000023D0EB020263EBE07380
:10030000009821464FEAE074B8EB000061EB04016D
:10031000E9E783F000435BE781F0004158E72DE90E
:10032000FE4F81EA030404F0004421F000410094F0
:100330004FF0000B23F0004350EA01045ED052EA74
:1003400003045BD0C3F30A54C1F30A552C44A4F24E
:10035000F3340194A0FB0254C1F3130141F4801162
:10036000C3F3130343F4801301FB024400FB034E69
:10037000840A970A44EA815447EA8357A4FB076832
:1003800002958D0A05FB07854FEA932C04FB0C545C
:100390002705029D4FEA065847EA1637B5EB0805D0
:1003A0006EEB070C870E920E47EA811742EA831222
:1003B000A7FB0201B6EB0B0164EB00042B0D43EA33
:1003C0000C335E1844EB1C50DA465146E7FB020141
:1003D000C5F313044FEA0B3343EA14534FEA0432D4
:1003E000019C43EA0603A4F10C040294009CCDE9AD
:1003F00000B400F05FF903B0BDE8F08F00200146C3
:10040000F9E72DE9F04D81EA030404F0004B21F0F7
:10041000004514464FF0000A23F0004150EA05025F
:1004200020D054EA01021DD0C5F30A570246C5F395
:100430001303C1F31300C1F30A5640F4801543F4CB
:100440008013A7EB0608101BD64608F2FD3873EBA5
:10045000050002D308F1010801E092185B41B8F1F0
:10046000000F03DA00200146BDE8F08D00204FF4B4
:100470008011064684460EE0171B73EB050705D373
:10048000121B63EB050306434CEA010C49084FEAD3
:10049000300092185B4150EA0107EDD152EA0300A7
:1004A00012D082EA040083EA0501084305D0101B3C
:1004B000AB4106D20122002306E000224FF00043A8
:1004C00002E06FF0010253101AEB06004CEB0851EA
:1004D00010EB0A0041EB0B01BDE8F04D00F0DBB87A
:1004E0000EB540F2334102910021CDE900110A46D8
:1004F0000B4600F0DFF803B000BD00F0004230F022
:1005000000400AD0C10D01F56071C0F3160042EA47
:100510000151C2084007114370470020014670474F
:1005200001F0004330B421F0004150EA010206D04E
:100530000A0DA2F56072C1F31301002A02DC30BC7F
:1005400000207047440F44EAC104C100E01830BCE9
:1005500000EBC25000F068B830B50B4601460020F1
:100560002022012409E021FA02F59D4205D303FA75
:1005700002F5491B04FA02F52844151EA2F10102F6
:10058000F1DC30BD2DE9F05F0546002092469B4628
:1005900088460646814640241BE028464146474699
:1005A000224600F069F953465A46C01A914110D3C9
:1005B00011461846224600F016F82D1A67EB01087E
:1005C0004F4622460120002100F00DF817EB0009EC
:1005D0004E41201EA4F10104DFDC484631462A4684
:1005E0004346BDE8F09F202A04DB203A00FA02F1DE
:1005F000002070479140C2F1200320FA03F3194311
:1006000090407047202A06DBCB17203A41FA02F0CF
:1006100043EAE07306E041FA02F3D040C2F120025F
:1006200091400843194670470029A8BF7047401CF5
:10063000490008BF20F00100704710B4B0FA80FCF8
:1006400000FA0CF050EA010404BF10BC704749B135
:10065000CCF1200421FA04F411FA0CF118BF0121A5
:1006600021430843A3EB0C01CB1D4FEA00614FEA85
:10067000102042BF002010BC704700EBC350104454
:100680000029A4BF10BC7047401C490008BF20F0DF
:10069000010010BC704710B5141E73F1000408DA95
:1006A000401C41F1000192185B411A4301D120F036
:1006B000010010BD2DE9F04D92469B4611B1B1FAF3
:1006C00081F202E0B0FA80F220329046FFF78BFF11
:1006D00004460F4640EA0A0041EA0B0153465A46D7
:1006E000084313D0114653EA010019D0C8F1400263
:1006F000504600F0C1F805460E465046594642465F
:10070000FFF771FF084305D0012004E02046394679
:10071000BDE8F08D0020054346EAE0762C433743E0
:100720000A986305E40AA0EB08000022FD0A44EAE7
:1007300047540A3002D500200146E9E701051019A7
:100740006941DDE9084500196941BDE8F04DA2E7BE
:100750002DE9F04D00231A461B1A8A4103DB0020C5
:100760000146BDE8F08DC1F30A52C1F3130141F413
:1007700080154FF0000BD10702D100186D41521EB9
:100780000027044640F2FF11384601EB620A3E465C
:100790008046024600204FF4801100F06DF8C21927
:1007A0007141BB1846EB0100B4EB030C75EB000C78
:1007B00004D3E41A65EB000517460E46241908F128
:1007C00001006D4180463428E3DDF91946EB06004F
:1007D000091BA84103D24FF0FF32134601E000226B
:1007E00013461BEB070046EB0A51BDE8F04DFFF73F
:1007F00052BFC1F30A52C1F3130140F2FF3341F477
:1008000080119A4202DA00200146704740F23343D9
:100810009A42A2F2334202DC524200F02DB8FFF7B6
:10082000E2BE000030B5041E71F1000404DB4FF09D
:100830000044404264EB0101141E73F1000405DB27
:100840001C464FF00043524263EB0403994208BF39
:10085000904230BD064C074D06E0E06840F00103D1
:1008600094E8070098471034AC42F6D3FFF798FCA1
:1008700084400008A4400008202A04DB203A21FA22
:1008800002F00021704721FA02F3D040C2F12002A9
:1008900091400843194670470020044900E0401C7D
:1008A00011F8013B002BFAD17047000038000020FE
:1008B00000BFFEE730B502464FF6FF7009E0C4B254
:1008C000157884EA0503521C054C34F8134084EA79
:1008D00010200C1EA1F10105A9B2F0D130BD00001D
:1008E000AC3D0008704700BF00BF00BF00BF00BFA5
:1008F00000BF00BF00BF00BF00BF00BF00BF00BF00
:1009000000BF00BF00BF00BF00BF00BF00BF00BFEF
:1009100000BF00BF00BF00BF00BF00BF00BF00BFDF
:1009200000BF00BF00BF00BF00BF00BF00BF00BFCF
:1009300000BF00BF00BF00BF00BF00BF00BF00BFBF
:1009400000BF00BF00BF00BF00BF00BF00BF00BFAF
:1009500000BF00BF00BF00BF00BF00BF00BF00BF9F
:1009600000BF00BF00BF00BF00BF00BF00BF00BF8F
:1009700000BF00BF00BF00BF00BF00BF00BF00BF7F
:1009800000BF00BF00BF00BF00BF00BF00BF00BF6F
:1009900000BF00BF00BF00BF00BF00BF00BF00BF5F
:1009A00000BF00BF00BF00BF00BF00BF00BF00BF4F
:1009B00000BF00BF00BF00BF00BF00BF00BF00BF3F
:1009C00000BF00BF00BF00BF00BF00BF00BF00BF2F
:1009D00000BF00BF00BF00BF00BF00BF00BF00BF1F
:1009E00000BF00BF00BF00BF00BF00BF00BF00BF0F
:1009F00000BF00BF00BF00BF00BF00BF00BF00BFFF
:100A000000BF00BF00BF00BF00BF00BF00BF00BFEE
:100A100000BF00BF00BF00BF00BF00BF00BF00BFDE
:100A200000BF00BF00BF00BF00BF00BF00BF00BFCE
:100A300000BF00BF00BF704730B5074B06CB00BFFB
:100A4000054BD3E90043651A63EB02032D1A73F1DA
:100A50000003F5D330BD00002800002000B501E000
:100A6000FFF741FF011EA0F10100F9D100BD000018
:100A700030B52DED028B8BB0B0EE408A05462C468A
:100A8000514890ED000AB5EEC00AF1EE10FA02D11D
:100A900080ED008A91E04C48D0ED000AB0EE480AA3
:100AA00000F0AEF800287CD048480068484908604B
:100AB00060782178C1EB011100EB8100C0EB0010E0
:100AC000A17801EB80004FF47A714843E17801EBA3
:100AD000810100EB81003F490860084600683C49FD
:100AE0000968401AFA283CDB3B4890ED000A3B4875
:100AF000D0ED000A30EE600A3948D0ED000AB4EEBD
:100B0000E00AF1EE10FA2CDB324800682F49086049
:100B100034480078401C33490870084600780028A3
:100B20001FDD2C4800682A490968401A40F6B83190
:100B3000884216DC2C4880682A490978022212FB78
:100B4000010029498860002026490870264827A10D
:100B5000826801A801F07AFE01AA0421052000F0B4
:100B6000D1F81C4800681A490968401AFA2824DBA1
:100B7000194890ED000A1948D0ED000A30EE600ADD
:100B80001E48D0ED000AB4EEE00AF1EE10FA14DBD4
:100B9000104800680D4908600F48D0ED000A0F4862
:100BA00000E00AE090ED001A70EEC10AB0EE600AB3
:100BB00001F036F90A4880ED000A034880ED008A0A
:100BC0000BB0BDEC028B30BDDC000020E800002043
:100BD000E4000020E0000020F0000020F8000020E9
:100BE000EC000020F40000205001002053746570D8
:100BF000436F756E743A253032640000FC000020AB
:100C00001E4800781E490870B4EEE00AF1EE10FAB2
:100C100008DB0120194908701A480068401C19496E
:100C2000086008E017480068174908600020154967
:100C30000860124908701148007890B9104800788F
:100C400078B111480068022806DAB3EE041AF4EE0F
:100C5000C10AF1EE10FA04DB0C48C0ED000A0120D5
:100C600070470748007838B90448007820B1084830
:100C7000C0ED000A0020F3E70020F1E700010020AA
:100C8000010100200401002008010020F0000020E4
:100C9000F80000202DE9F04180460E46144600255C
:100CA00010E07019C1B2404600F0E4FF002705E0F3
:100CB00014F8010B00F0C2FF781CC7B2082FF7DB55
:100CC000681CC5B2022DECDBBDE8F0812DE9F041D6
:100CD00080460E461446002510E07019C1B2404609
:100CE00000F0C8FF002705E014F8010B00F0A6FF94
:100CF000781CC7B2102FF7DB681CC5B2022DECDBE5
:100D0000BDE8F0812DE9F04106460F46154646E064
:100D10007C2E02DD0026B81CC7B2062F00DD00279E
:100D20002878A02819DA002410E028781E49095DE7
:100D300088420AD11D4800EB041239463046FFF7BD
:100D4000A9FF06F10800C6B204E0641CFFF7A4FD89
:100D5000A042EAD800BF6D1C21E0002419E02878E9
:100D60001349095D884213D1681C05460178104A71
:100D7000601C105C81420BD160080E4901EB4012EF
:100D800039463046FFF7A2FF06F11000C6B204E074
:100D9000A41C0748005D0028E1D100BF6D1C287825
:100DA0000028B5D1BDE8F081380000207C3700086C
:100DB000960000204C3D000810B5002404E00648D1
:100DC000005D06490855641C182CF8D304490348F3
:100DD00000F088F810BD0000C43F00086C0100203E
:100DE0008401002010B5002404E00648005D064997
:100DF0000855641C182CF8D30449034800F072F815
:100E000010BD00000C4000086C010020840100208F
:100E100010B5002404E00648005D06490855641C2E
:100E2000182CF8D30449034800F05CF810BD00000A
:100E3000DC3F00086C0100208401002010B5002474
:100E400004E00648005D06490855641C182CF8D3D8
:100E50000449034800F046F810BD00002440000893
:100E60006C01002084010020024600210AB9002004
:100E70007047002104E00448405C5054481CC1B253
:100E80001829F8DB1820F3E78401002010B50024AE
:100E900004E00648005D06490855641C182CF8D388
:100EA0000449034800F01EF810BD0000AC3F0008E4
:100EB0006C0100208401002010B5002404E00648E5
:100EC000005D06490855641C182CF8D304490348F2
:100ED00000F008F810BD0000F43F00086C0100208D
:100EE000840100202DE9F04104460D46012712211E
:100EF000201DFFF7DFFC0646E68218222146662009
:100F000000F037F80520FFF797FD182229466620E4
:100F100000F00DF8EE8A1221281DFFF7CBFCB0423D
:100F200000D000273846BDE8F08100BFFEE72DE97C
:100F3000F04106460C46174600F0BCF9012101EBD2
:100F40004601C8B200F074F900F0F6F9002505E09A
:100F5000002000F025F96055681CC5B2172DF7DB9D
:100F6000012000F01DF9E07500F0C0F90020BDE897
:100F7000F0812DE9F04105460E46174600F09AF93A
:100F80006906080E00F054F900F0D6F9002406E0D6
:100F9000305D00F04DF900F0CFF9601CC4B2182CA0
:100FA000F6DB00F0A3F90020BDE8F08115480068E9
:100FB00040F00200134908601348006820F04040E8
:100FC000114908600846006840F080400860081D2C
:100FD000006820F40040091D0860081D006820F02A
:100FE0004040091D08600846006840F00040086065
:100FF00005481430006820F40040034914310860AB
:1010000070470000303802400004024010B54FF431
:1010100080701949088018481A38006820F4402068
:1010200015491A3908600846006840F480200860B5
:1010300048151149891E08800220FFF70FFD4FF463
:1010400000700D4908800320FFF708FD4FF4807001
:101050000949891E08800420FFF700FD4FF48070C5
:10106000054908800220FFF7F9FC4FF4007002499F
:10107000891E088010BD00001A0402402A4800683A
:1010800040F00200284908602848006820F44030F9
:10109000264908600846006840F480300860081D52
:1010A000006820F48070091D086020480C3000683A
:1010B00040F480301D490C310860081F006820F49E
:1010C0004030091F08600846006840F4003008609E
:1010D0001648006820F4402014490860084600685B
:1010E00040F480200860081D006820F40070091D8D
:1010F00008600E480C30006840F480200B490C3129
:101100000860081F006820F44020091F0860084696
:10111000006840F4002008608815044918310880F0
:101120004000088070470000303802400004024050
:1011300010B54FF480701949088018481A380068B3
:1011400020F4402015491A3908600846006840F428
:101150008020086048151149891E08800220FFF789
:101160007DFC4FF400700D49891E08800320FFF7B5
:1011700075FC4FF480700949891E08800420FFF730
:101180006DFC4FF48070054908800220FFF766FC73
:101190004FF400700149891E088010BD1A040240F6
:1011A00070B5064600252148006820F440201F49FC
:1011B000086008460068086000242CE04FF4807046
:1011C0001A491A3108800520FFF748FC4FF4807057
:1011D0001649183108800420FFF740FC13481030EE
:1011E000006800F4007008B1012000E00020012830
:1011F00005D1C4F1070188402843C5B204E0C4F119
:1012000007010120884085434FF4807007491A3157
:101210000880601CC4B2082CD0DB16B9FFF7F6FEBC
:1012200001E0FFF785FF284670BD00000004024082
:1012300070B505461E48006820F440201C4908602F
:101240000846006840F480200860002427E04FF43E
:10125000807017491A310880C4F1070101208840C5
:10126000284028B14FF4007011491831088004E07B
:101270004FF400700E491A3108800320FFF7EEFB8F
:101280004FF480700A49183108800320FFF7E6FB0D
:101290004FF4807006491A310880601CC4B2082CD3
:1012A000D5DB4FF4007002491831088070BD000092
:1012B0000004024010B50C48006820F440200A49A0
:1012C00008600846006840F4802008604815064918
:1012D00018310880401008804000891C08800620D2
:1012E000FFF7BCFB10BD00000004024010B5114820
:1012F000006820F440200F4908600846006840F468
:101300008020086088150B491A3108804000088049
:101310000420FFF7A3FB4FF48070064918310880C2
:101320000420FFF79BFB4FF400700249183108803E
:1013300010BD00000004024010B5002417480068EA
:1013400020F44020154908600846006808604815E8
:101350001249183108800120FFF780FB4FF480709C
:101360000E49183108800120FFF778FB07E0601C68
:10137000C4B2FA2C03DDFFF7B9FF012010BD074806
:101380001030006800F4007000B1F0E74FF4807096
:1013900002491A3108800020F0E7000000040240F2
:1013A0002848006840F00100264908602648006887
:1013B00020F44040244908600846006840F480401A
:1013C00008600846406820F0800048600846806851
:1013D00020F4404088600846806840F400408860FF
:1013E0000846406940F0800048610846006820F0E7
:1013F000010008600846C06820F00100C86011487C
:10140000006840F002000F4908601048006820F4AE
:1014100040100E4908600846006840F480100860DB
:10142000081D006820F48060091D0860081D006820
:1014300020F44010091D08600846006840F40010C0
:10144000086070473038024000000240000402404B
:1014500010B50024FFF72EFFD020FFF7E9FEFFF7BD
:101460006BFF18B1FFF742FF012010BD6B20FFF7A3
:10147000DFFEFFF761FF18B1FFF738FF0120F4E747
:101480008020FFF7D5FEFFF757FF18B1FFF72EFFBB
:101490000120EAE7FFF72AFF6420FFF7CDFAFFF704
:1014A00009FFD020FFF7C4FEFFF746FF18B1FFF792
:1014B0001DFF0120D9E76B20FFF7BAFEFFF73CFFC5
:1014C00018B1FFF713FF0120CFE70020FFF7B0FEB0
:1014D000FFF732FF18B1FFF709FF0120C5E7FFF75B
:1014E00005FF0120FFF7A8FAFFF7E4FED020FFF781
:1014F0009FFEFFF721FF18B1FFF7F8FE0120B4E7C8
:101500001C20FFF795FEFFF717FF18B1FFF7EEFE5F
:101510000120AAE71820FFF78BFEFFF70DFF18B197
:10152000FFF7E4FE0120A0E7FFF7E0FE0120FFF750
:1015300083FAFFF7BFFED020FFF77AFEFFF7FCFE2D
:1015400018B1FFF7D3FE01208FE71C20FFF770FED4
:10155000FFF7F2FE18B1FFF7C9FE012085E7002072
:10156000FFF766FEFFF7E8FE18B1FFF7BFFE0120A8
:101570007BE7FFF7BBFE0120FFF75EFAFFF79AFE5D
:10158000D020FFF755FEFFF7D7FE18B1FFF7AEFEEC
:1015900001206AE73820FFF74BFEFFF7CDFE18B1B8
:1015A000FFF7A4FE012060E70020FFF741FEFFF7F0
:1015B000C3FE18B1FFF79AFE012056E7FFF796FE2B
:1015C0000120FFF739FAFFF775FED020FFF730FE54
:1015D000FFF7B2FE18B1FFF789FE012045E7192099
:1015E000FFF726FEFFF7A8FE18B1FFF77FFE0120E8
:1015F0003BE71420FFF71CFEFFF79EFE18B1FFF734
:1016000075FE012031E7FFF771FE0120FFF714FAA4
:10161000FFF750FED020FFF70BFEFFF78DFE18B14D
:10162000FFF764FE012020E76A20FFF701FEFFF7C5
:1016300083FE18B1FFF75AFE012016E70020FFF7DE
:10164000F7FDFFF779FE18B1FFF750FE01200CE718
:10165000FFF74CFE0120FFF7EFF9FFF72BFED0203C
:10166000FFF7E6FDFFF768FE18B1FFF73FFE012028
:10167000FBE62320FFF7DCFDFFF75EFE18B1FFF766
:1016800035FE0120F1E60020FFF7D2FDFFF754FE02
:1016900018B1FFF72BFE0120E7E6FFF727FE012038
:1016A000FFF7CAF9FFF706FED020FFF7C1FDFFF7ED
:1016B00043FE18B1FFF71AFE0120D6E63720FFF7E8
:1016C000B7FDFFF739FE18B1FFF710FE0120CCE699
:1016D0008020FFF7ADFDFFF72FFE18B1FFF706FEE4
:1016E0000120C2E6FFF702FE0120FFF7A5F9FFF790
:1016F000E1FDD020FFF79CFDFFF71EFE18B1FFF7BC
:10170000F5FD0120B1E67520FFF792FDFFF714FE0D
:1017100018B1FFF7EBFD0120A7E6FFF7CBFDD120C5
:10172000FFF786FDFFF708FE18B1FFF7DFFD012088
:101730009BE60120FFF734FD0446FFF7D7FD682C38
:101740006BD1FFF7B7FDD020FFF772FDFFF7F4FD77
:1017500018B1FFF7CBFD012087E66B20FFF768FD8E
:10176000FFF7EAFD18B1FFF7C1FD01207DE601207A
:10177000FFF75EFDFFF7E0FD18B1FFF7B7FD0120B1
:1017800073E6FFF7B3FD0120FFF756F9FFF792FD6F
:10179000D020FFF74DFDFFF7CFFD18B1FFF7A6FDF5
:1017A000012062E66C20FFF743FDFFF7C5FD18B18D
:1017B000FFF79CFD012058E60020FFF739FDFFF7F9
:1017C000BBFD18B1FFF792FD01204EE6FFF78EFD3D
:1017D0000120FFF731F9FFF76DFDD020FFF728FD5D
:1017E000FFF7AAFD18B1FFF781FD01203DE61920A2
:1017F000FFF71EFDFFF7A0FD18B1FFF777FD0120F1
:1018000033E61420FFF714FDFFF796FD18B1FFF73C
:101810006DFD012029E6FFF769FD002025E60000A7
:1018200010B5FFF715FE28B905A200216B20FFF7C0
:1018300069FA04E003A200216B20FFF763FA10BDF0
:10184000596573004E6F000010B5FFF733FDD020CF
:10185000FFF7EEFCFFF770FD18B1FFF747FD012021
:1018600010BD3B20FFF7E4FCFFF766FD18B1FFF762
:101870003DFD0120F4E7FFF71DFDD120FFF7D8FC67
:10188000FFF75AFD18B1FFF731FD0120E8E700240A
:1018900006E00020FFF784FC5D490855601CC4B2D7
:1018A000052CF6DB0120FFF77BFC59490855FFF7B3
:1018B0001DFD0A20FFF7D2F8FFF7FCFCD020FFF750
:1018C000B7FCFFF739FD18B1FFF710FD0120C7E79E
:1018D0004320FFF7ADFCFFF72FFD18B1FFF706FD22
:1018E0000120BDE7FFF7E6FCD120FFF7A1FCFFF7E1
:1018F00023FD18B1FFF7FAFC0120B1E7002406E050
:101900000020FFF74DFC43490855601CC4B2052C6C
:10191000F6DB0120FFF744FC3E490855FFF7E6FCE3
:101920003B4840783A49097840EA01203A49088022
:101930003748C0783649897840EA0120374908801D
:10194000334840793249097940EA01203449088016
:10195000304840782F49097840EA01203149088011
:101960002C48C0782B49897840EA01202E4908800C
:10197000284840792749097940EA01202B49088005
:101980002548008800EE100AB8EEC00ADFED280AEC
:1019900080EE201AB2EE040A21EE000A254880EDFE
:1019A000000A1E48008800EE100AB8EEC00ADFEDFB
:1019B000200A80EE201AB2EE040A21EE000A1D4829
:1019C00080ED010A1648008800EE100AF8EEC00A01
:1019D0009FED171A80EE810AF2EE040A20EE200A2B
:1019E000144880ED020A144B144A1549154800F0BA
:1019F000B3FA144800781449087011480078487008
:101A00000E48007888700B4801F06EFE002027E732
:101A1000B8000020BE000020C4000020C600002046
:101A2000C8000020CA000020CC000020CE0000200A
:101A30000000804638010020D3000020D2000020A2
:101A4000D1000020D0000020D40000202DE9F0417A
:101A50000746884614461D46284600F033F8C5F16F
:101A6000040007FA00F60F20284100EA08000643A8
:101A700006F00F06E21704EBD2625211920002F157
:101A8000E022D2F800212146E31704EBD3635B1177
:101A9000A4EB431C012303FA0CF31A432046E3177B
:101AA00004EBD3635B119B0003F1E023C3F8002137
:101AB0000348005D40EA061001490855BDE8F08181
:101AC00000E400E00146072323EA01021202054B6D
:101AD00018684FF6FF031840034B18431043014B9F
:101AE000186070470CED00E00000FA0500BFFEE74B
:101AF000704730B500240EE02146002000F0BAF80F
:101B0000002504E0002000F099F8681CC5B2842D7F
:101B1000F8DB601CC4B2082CEEDB30BD00B500F071
:101B2000CDF83748006840F400503549086064201B
:101B300000F0B2F83248006820F4005030490860E4
:101B4000642000F0A9F82E48006840F400502C49A9
:101B50000860642000F0A0F8AE2000F053F80020E8
:101B600000F050F8102000F04DF8402000F04AF846
:101B7000B02000F047F8812000F044F8662000F023
:101B800041F8A12000F03EF8A62000F03BF8A82084
:101B900000F038F83F2000F035F8C82000F032F8A7
:101BA000D32000F02FF8002000F02CF8D52000F012
:101BB00029F8802000F026F8D92000F023F81F2013
:101BC00000F020F8DA2000F01DF8122000F01AF8DA
:101BD000DB2000F017F8302000F014F88D2000F022
:101BE00011F8142000F00EF8A42000F00BF8A62045
:101BF00000F008F8AF2000F005F8FFF77AFF00BD0D
:101C00001404024000B502460A48006820F0800033
:101C1000084908600848406920F4004006494861C6
:101C2000104600F091FC0348006840F08000014934
:101C3000086000BD140402400000024000B50246E6
:101C40000A48006820F08000084908600848406998
:101C500040F4004006494861104600F075FC034816
:101C6000006840F080000149086000BD1404024093
:101C70000000024010B503460C4604F1B001C8B2A2
:101C8000FFF7C0FF102141EA1310FFF7BBFF03F07D
:101C90000F00FFF7B7FF10BD10B5074B19685B6861
:101CA00000BF054A14685268641A62F10002241ADF
:101CB00072F10002F5D310BD3000002052480068D8
:101CC00040F00300504908605048006820F0404050
:101CD0004E4908600846006840F0804008600846A9
:101CE0004068C0F30E0048600846806820F040401D
:101CF00088600846806840F000408860444800687A
:101D000020F44040424908600846006840F48040A2
:101D10000860081D006820F08000091D0860081D8B
:101D2000006820F44040091D08600846006840F43F
:101D3000004008603648006820F040603449086080
:101D40000846006840F080600860081D00684DF695
:101D5000FF7108402E49091D0860081D006820F029
:101D60004060091D08600846006840F00060086097
:101D70002748006820F44C60254908600846006840
:101D800040F408600860081D006820F02800091D64
:101D90000860081D006820F44C60091D08600846B2
:101DA000006840F40860086019482030006819494C
:101DB0000840174920310860084600681649084362
:101DC00013492031086010481430006840F48050F6
:101DD0000D49143108600020104908800846008829
:101DE00040F4407008800846008840F038000880C1
:101DF0000846008840F0040008800846008840F04B
:101E00004000088070470000303802400000024067
:101E100000040240FF0F0FFF00505000003001404F
:101E200010B5F0EE401A1A4890ED000AB0EE402AC4
:101E300000241848006804280CDA17481549096876
:101E400000EB8100C0ED001A12480068401C1149E7
:101E5000086019E00421104801F0BCF9B0EE402AF6
:101E600001240CE00C4800EB840090ED000A601E99
:101E7000094901EB800080ED000A601CC4B2042C0B
:101E8000F0DB0548C0ED031AB0EE420A10BD0000B9
:101E9000EC0000200C0100205C01002070470000D5
:101EA00010B50A48006800F4807040B10748006827
:101EB00020F480700549086005A000F0B7FC0748D1
:101EC000006840F400300549086010BD0C2800404F
:101ED000414C41524D2041210D0A0000143C01406B
:101EE000014600BF081100EB8000420001F00F0026
:101EF0001044C0B270470146002204E0501CC2B238
:101F0000A1F10A00C1B20A29F8DA100741EA10600B
:101F100070470000F0B504460D4616461F460023E4
:101F200000BF00F0B7F90028FBD10A480368C3F3EB
:101F30000740FFF7D5FF2070C3F30420FFF7D0FF61
:101F4000287003F03F00FFF7CBFF3070C3F342303F
:101F50003870F0BD04280040F0B504460D46164622
:101F60001F46002300BF00F095F90028FBD10A4866
:101F70000368C3F30540FFF7B3FF2070C3F30620E7
:101F8000FFF7AEFF287003F07F00FFF7A9FF307066
:101F9000C3F387503870F0BD0028004010B541F6FB
:101FA000FF743848006840F0805036490860364871
:101FB000006840F4807034490860002000F088F820
:101FC00045F2500188425AD02E483030006840F027
:101FD00001002C493031086004E0601E84B2052005
:101FE000FEF72AFD34B127483030006800F00200C7
:101FF0000028F2D00CB9012010BD22483030006812
:1020000040F480701F49303108600846006840F491
:1020100000400860CA201D4908605320086000F095
:1020200037F808B10220E7E7FF20184914390860A3
:102030000846006840F4FE00086014481C38006838
:1020400020F0400011491C390860081D006820F08C
:102050008000091D0860FF200C4908600023382219
:102060002021092000F070F8052313220A211220F4
:1020700000F038F845F25001002000F02FF9002060
:10208000BAE70000403802400070004024280040B9
:102090004FF480310D48006800F0400008B1002086
:1020A00070470A48006840F08000084A106000E06D
:1020B000491E29B10548006800F040000028F7D00B
:1020C00009B90120ECE70020EAE700000C280040F5
:1020D00001460022024800EB8102106870470000B0
:1020E000502800402DE9F04106460C4615460027D1
:1020F000CA201449086053200860FFF7C9FF10B1D7
:102100000120BDE8F0813046FFF7F5FE000403F042
:10211000070140EA41382046FFF7EDFE48EA002873
:102120002846FFF7E8FE48EA00070648203807601F
:1021300004481838006820F0800002491839086007
:102140000020DEE7242800402DE9F04106460C4639
:1021500015460027CA201449086053200860FFF77D
:1021600097FF10B10120BDE8F0813046FFF7C3FEB4
:10217000000403F0010140EA81582046FFF7BBFE4E
:1021800048EA00282846FFF7B6FE48EA0007064856
:102190002438076004481838006820F0800002499D
:1021A000183908600020DEE72428004070B5044696
:1021B0000D46CA202A4908605320086028481C3868
:1021C000006820F4806026491C39086000BF24485C
:1021D0001838006800F004000028F8D020481C38A7
:1021E000006820F007001E491C3908600846006896
:1021F00004F0070108431A491C39086018481038D0
:102200000560081D006820F48060091D0860081F33
:10221000006840F48040091F08600846006840F4E8
:1022200080600860FF200E4908600E48006840F496
:1022300080000C4908604FF480000A49143108609E
:1022400008480830006840F48000064908310860FA
:102250000223032219461846FFF7F8FB70BD000061
:1022600024280040003C01400848006800F48060D9
:1022700028B10648006820F48060044908600448DA
:10228000006840F480000249086070470C28004054
:10229000143C01400F49CA200F4A106053201060BF
:1022A0000D481838006820F020000B4A183A1060DA
:1022B00000E0491E31B108481838006800F02000DD
:1022C0000028F6D009B901207047FF20024A1060AB
:1022D0000020F9E7FFFF0F00242800400022024BF6
:1022E00003EB8002116070475028004010B52DEDBF
:1022F000088BFEF7DFFF8020FEF79AFF02E0BDECBF
:10230000088B10BDFFF718F80028F8D1F520FEF76C
:102310008FFF1920FEF790FBFEF7CCFF8120FEF720
:1023200087FF07E0FEF7C6FF8120FEF781FF6420EC
:10233000FEF794FBFFF700F80028F3D10120FEF729
:102340002FFF284908700120FEF72AFF2549487011
:102350000020FEF725FF23498870FEF7C7FF2248BB
:10236000407800F0FC002049487008464078097821
:1023700040EA01201D49088008460088FEF7B0F8B1
:1023800041EC1B0B9FED1A0B53EC102BFEF739F8A9
:1023900041EC1A0B9FED180B53EC102BFDF7BFFF10
:1023A00041EC190B9FED160B53EC102BFDF710FFB2
:1023B00041EC180BFEF7B4F81349086008460068B2
:1023C000FEF79BF841EC180B53EC182B0FA11248A9
:1023D00000F03CFA104A04211E20FEF793FC00BFD7
:1023E0008DE70000A5000020A0000020AC00002028
:1023F000000000000000F0400000000000405F40CE
:1024000000000000000018C0B400002048756D3ABC
:1024100020252E31660000001801002010B52DED9A
:10242000088BFEF747FF8020FEF702FF02E0BDECBD
:10243000088B10BDFEF780FF0028F8D1F320FEF7CF
:10244000F7FE5020FEF7F8FAFEF734FF8120FEF782
:10245000EFFE07E0FEF72EFF8120FEF7E9FE642085
:10246000FEF7FCFAFEF768FF0028F3D10120FEF723
:1024700097FE284908700120FEF792FE2549487012
:102480000020FEF78DFE23498870FEF72FFF2148BC
:10249000407800F0FC001F494870084640780978F1
:1024A00040EA01201C49088008460088FEF718F819
:1024B00041EC1B0B9FED190B53EC102BFDF7A1FF0B
:1024C00041EC1A0B9FED170B53EC102BFDF727FF78
:1024D00041EC190B9FED150B53EC102BFDF719FF79
:1024E00041EC180BFEF71CF812490860084600681A
:1024F000FEF703F841EC180B53EC182B0EA1114812
:1025000000F0A4F90F4A02211E20FEF7FBFB00BFDA
:102510008DE70000A0000020AA00002000000000BD
:102520000000F040D7A3703D0AF76540CDCCCCCC7D
:10253000CC6C4740B000002054656D3A20252E3108
:102540006600000018010020014600BF094800890C
:1025500000F002000028F9D00648818100BF05483C
:10256000008900F001000028F9D002488089C0B23B
:1025700070470000003001407047000022480068AA
:1025800040F08050204908602048006840F44040F6
:102590001E4908601C48383800681B4938390860F3
:1025A0000846006808600846006840F480500860EB
:1025B0001748091F0860081F006840F08070091F55
:1025C000086000BF10484038006800F00070002824
:1025D000F8D040F202700F4908600B4838380068A4
:1025E00020F003000849383908600846006840F0C8
:1025F0000200086000BF04483838006800F00C0092
:102600000828F8D1704700004038024000700040B0
:1026100010640107003C02401548D0E90020521C1C
:1026200040F100001249C1E90020124801684068E9
:10263000491C40F100000F4A116050600E480068CC
:10264000401C0D4908600D480068401C0B4908609B
:102650000B480068401C0A4908600A480068401C92
:102660000849086008480068401C0749086070472E
:10267000280000203000002000000020080000207A
:1026800010000020180000202000002010B5154880
:10269000006840F47000134908601348006840F077
:1026A00001001149086000200F49083108600E48F8
:1026B00000680E4908400C4908600D48091D086073
:1026C000081F006820F48020091F086000200649C8
:1026D0000C310860FFF752FF4FF00060014980396C
:1026E000086010BD88ED00E000380240FFFFF6FEF4
:1026F00010300024704700BFFEE7000070B5DFED2A
:10270000450AB0EE600AFCEEC00A10EE901A00EE28
:10271000901AF8EE600A30EE601AF3EE001AF6EE48
:10272000000A41EE210AFCEEE00A10EE903A3A4827
:10273000006840F00100384A10603848006820F412
:102740007010364A10601046006840F42010106087
:102750001046406840F4007050601046806820F4D5
:10276000402090601046806860F400209060104621
:10277000C06820F47010D0601046C06840F4A0100B
:10278000D06025481430006840F01000224A14320E
:1027900010602248406A20F47F6220484262406A0A
:1027A00040F4EE621D48426200201D4A90811046AE
:1027B000808940F00C00908143EA011010810020D4
:1027C00010821046808940F4005090812520032219
:1027D000002807DA1407260E124C00F00F052D1FF3
:1027E000665503E01407250E0F4C255400BF252025
:1027F00000F01F040122A2404409A40004F1E024D7
:10280000C4F8002100BF0648808940F02000044A37
:10281000908170BD00003442303802400000024018
:102820000010014018ED00E000E400E00FB4054B9B
:1028300010B503A9044A029800F030F910BC5DF805
:1028400014FB0000B1320008100100200FB4084B47
:1028500010B504A902AA039800F020F9044602A9C1
:10286000002000F0B2FC204610BC5DF814FB000014
:10287000CB31000800B52DED048BB0EE409AF0EEA0
:10288000609A83B051EC190BFDF762FF41EC180B15
:1028900018EE100A18EE901A8DED008B002818BF64
:1028A0000120084320F00040C0F17F6000F1E040CB
:1028B000C00F14D019EE101A19EE900A8DED009B7E
:1028C000002918BF0121084320F00040C0F17F60BB
:1028D00000F1E040C00F04BF012000F017F8B0EE97
:1028E000480A03B0F0EE680ABDEC048B00BD02E0BC
:1028F00008C8121F08C1002AFAD17047704700208B
:1029000001E001C1121F002AFBD170470149086094
:1029100070470000140100202DE9FF5F82B0002104
:10292000DDE90430020DDDF840B0034318D044F671
:102930001050A2F2FF3242431514119801281FD003
:10294000A5EB0B00401C5FEA000A4FF000064E4F5B
:10295000DFF83891B046504615D5CAF1000413E0AF
:10296000119801244AA3012801D16FEA0B010298B2
:10297000119AC0E90031C0E9024206B0BDE8F09FFB
:10298000CBF10000DFE704460021404A491842EB42
:102990000450CDE9001012E0E00707D032463B4674
:1029A00040464946FDF7BBFC8046894632463B46D9
:1029B00010461946FDF7B3FC06460F466410002C7E
:1029C000EAD1DDE90401DDE90023BAF1000F06DAFE
:1029D000FDF7A5FC42464B46FDF7A1FC05E0FDF7DF
:1029E00010FD42464B46FDF70CFD04460E46002204
:1029F000284BFDF717FF03D84FF0FF30014607E0E3
:102A00000022254B20463146FDF7E2FBFDF7F1FEA3
:102A1000102409E0002C0ADB0A220023FDF7B2FD96
:102A2000039B30321A55641E50EA0102F2D1641C35
:102A3000039AC4F111031444119A012A03D001220C
:102A400008430DD10AE0084304D000204FF0110BD9
:102A5000119072E7A3EB0B056D1E0DE05B4504DDE5
:102A60004FF0000205F1010504E003DA4FF0000227
:102A7000A5F10105002AECD002981199C0E90231B4
:102A8000C0E9004579E70000000014400000F03F75
:102A9000300000000000F0430000E03F2DE9FF4F50
:102AA00095B09B468946064600250FE2252877D13A
:102AB00000242746F84A0121059400E0044316F853
:102AC000013F203B01FA03F01042F7D130782A2869
:102AD00011D06FF02F033078A0F13002092A16D8F8
:102AE000059A44F0020402EB820203EB4202104416
:102AF000761C0590EFE759F8042B0592002A03DABB
:102B0000504244F40054059044F00204761C30789E
:102B10002E2816D116F8010F44F004042A280DD0EF
:102B20006FF02F023078A0F13003092B09D807EBA2
:102B3000870302EB4303C718761CF3E759F8047BBD
:102B4000761C30786C280FD006DC4C2817D068280B
:102B50000DD06A2814D104E0742810D07A280FD13F
:102B60000DE044F400140AE044F4801401E044F45D
:102B700040147278824202D104F58014761C761CCF
:102B8000307866280BD013DC582877D009DC002871
:102B900075D04528F6D04628F4D047281AD19DE1B3
:102BA00018E0632835D0642879D0652812D195E1E2
:102BB000702873D008DC6728F1D069286FD06E28A0
:102BC0000DD06F2806D1B5E073282CD0752875D0AC
:102BD000782874D05A46179990476D1C75E1C4F354
:102BE0000250022809D003280DD0D9F8001004287B
:102BF0000DD00D6009F1040967E1D9F80010EA175A
:102C0000C1E90052F6E7D9F800100D80F2E70D7027
:102C1000F0E719F8041B8DF8001000208DF8010072
:102C2000EA46012003E059F804AB4FF0FF3061079A
:102C30004FF0000102D40DE008F101018846B942CD
:102C40000FDA8045F8DB1AF808100029F4D108E003
:102C500008F1010188468142FADB1AF808100029C0
:102C6000F6D105985B46A0EB080721463846179A2F
:102C700000F094FA284400EB080507E04DE029E154
:102C80000DE01AF8010B5A4617999047B8F1010860
:102C9000F7D25B4621463846179A13E142E00A22F2
:102CA0000092C4F302524FF0000A022A08D059F8E9
:102CB00004CB032A4FEAEC710AD00DE029E02AE0A8
:102CC00009F1070121F00702F2E802C1914609E08B
:102CD0000FFA8CFC4FEAEC71042A03D14FFA8CFCFA
:102CE0004FEAEC71002907DA0A460021DCF1000CFA
:102CF00061EB02012D2202E0220504D52B228DF882
:102D00000420012203E0E20701D02022F7E79046E9
:102D100059E00A2102E010220DE010214FF0000AD4
:102D200000910BE010224FF0000A44F00404082741
:102D3000009203E008224FF0000A0092C4F302520E
:102D4000022A05D059F804CB0021032A08D009E053
:102D500009F1070121F00702F2E802C1914605E0FE
:102D60001FFA8CFC042A01D10CF0FF0C4FF0000874
:102D7000220728D5702806D0009B83F0100353EA61
:102D80000A0305D00EE040228DF80420012208E05D
:102D90005CEA010206D030228DF804208DF805008F
:102DA00002229046009B83F0080353EA0A030AD1EB
:102DB0005CEA010201D1620705D530228DF80420BA
:102DC0004FF001087F1E582804D034A003900EA8AD
:102DD00002900DE036A0F9E753466046009AFDF7F1
:102DE000D1FB84460398825C0298401E02900270D8
:102DF0005CEA0100F0D1029806A9081A00F1200A45
:102E0000600702D524F4803400E00127574502DD35
:102E1000A7EB0A0000E0002000EB0A0100900598F3
:102E20004144401A0590E00306D45B462146179AB8
:102E3000059800F0B3F90544002706E001A85A46BA
:102E4000C05D179990476D1C7F1C4745F6DBE0037A
:102E50000CD55B462146179A059800F09FF905446A
:102E600004E030205A46179990476D1C0099481E7F
:102E700000900029F5DC08E0029802995A46007893
:102E8000491C0291179990476D1CBAF10001AAF1F3
:102E9000010AF1DC65E1000009280100303132331C
:102EA0003435363738396162636465660000000086
:102EB0003031323334353637383941424344454670
:102EC0000000000000F058F90544761C3078002816
:102ED0007FF4ECAD19B02846BDE8F08F620700D44E
:102EE000062709F1070222F0070CFCE80223E1465D
:102EF00003F000485FEA080C02D00FF2702C0DE0DE
:102F00005FEA045C02D50FF2682C07E05FEAC47C3C
:102F100002D00FF2602C01E0AFF2700C4FF0FF38DE
:102F200023F00043CDF850C065280CD006DC4528BE
:102F300009D046281DD047283DD13DE0662818D04D
:102F400067287ED138E00021112F01DB112000E03D
:102F5000781CCDE9000106A90EA8FFF7DDFCDDE92C
:102F60000F010E9A03910021009207F1010A0491CA
:102F70004DE04FF000400097CDE9011006A90EA8E2
:102F8000FFF7CAFCDDE90F0203920E9B11990022A4
:102F9000DDF80CA00093049211B9791C00EB010A32
:102FA000B7EB0A0004D4C0F1FF3007F1010A049026
:102FB000AAEB0700019044E0012F00DA012700216D
:102FC000112F01DD112000E03846CDE9000106A9EE
:102FD0000EA8FFF7A1FCDDE90F010E9A0391002175
:102FE00004910092BA4621070CD40399514500DAA6
:102FF0008A46BAF1010F05DD009AAAF10101515C80
:10300000302908D0B84202DA10F1040F06DA0121A3
:10301000CDE9011015E0AAF10101E9E7002805DC7E
:10302000049901440491AAEB000102E0411C5145BE
:1030300000DD8A460499401A401C01904FF0004080
:103040000290200704D40198504501DBCDF804809C
:1030500000208DF84F0002980DF14F07B0F1004F9E
:1030600025D02B200E9002984FF0020800280CDA91
:10307000404202902D200E9007E00A210298FDF7B1
:103080006BFA3031029007F8011DB8F10001A8F188
:103090000108F2DC02980028EFD1791E0E98087022
:1030A000307800F0200040F0450007F8020D12A82B
:1030B000C01B00F107081498007800B1012000EB54
:1030C0000A01019801EBE07105984144401A401E45
:1030D0000590E00306D45B462146179A059800F058
:1030E0005DF805441498007818B15A46179990472E
:1030F0006D1CE00324D55B462146179A059800F025
:103100004DF805441CE00498002807DBDDE90301C5
:10311000884203DD0098405C179901E01799302040
:103120005A469047049805F10105401C0490019807
:10313000401E019004D12E205A46179990476D1CCD
:10314000BAF10001AAF1010ADDDC05E017F8010B74
:103150005A46179990476D1CB8F10001A8F1010873
:10316000F4DC5B462146179A0598ABE62D0000007B
:103170002B000000200000002DE9F041044600254E
:103180001E461746880404D405E039462020B0477F
:103190006D1C641EF9D52846BDE8F0812DE9F0418B
:1031A000044600251E469046C80301D5302700E09E
:1031B0002027880404D505E041463846B0476D1CF9
:1031C000641EF9D52846BDE8F0810A68531C0B60DF
:1031D000107070470246DFED310AB0EE600A002041
:1031E00000BF09E002EB8003D3ED000A70EE800A15
:1031F000B0EE600A431CD8B28842F3DBF1EE000A5D
:1032000080EE201AB0EE410AF2EE000AB4EEE00AB7
:10321000F1EE10FA04DBDFED220AB0EE600A3CE0CA
:10322000F1EE0C0AB4EEE00AF1EE10FA0BDBF2EE6E
:10323000000AB4EEE00AF1EE10FA04D2DFED190A4A
:10324000B0EE600A29E0F1EE000AB4EEE00AF1EE19
:1032500010FA0BDBF1EE0C0AB4EEE00AF1EE10FA14
:1032600004D2DFED110AB0EE600A16E0F0EE080AB3
:10327000B4EEE00AF1EE10FA0BDBF1EE000AB4EE68
:10328000E00AF1EE10FA04D2F0EE000AB0EE600AA5
:1032900003E0DFED060AB0EE600A704700000000B0
:1032A0009A99894033335340333313406666A63FBF
:1032B000024600BF0448008800F080000028F9D0D2
:1032C000014B9A800020704700100140A2B00024FA
:1032D000C549481EB0F1807F00D31BE0481E4FF067
:1032E000E022506150170F22002807DA13071E0E44
:1032F000BE4B00F00F052D1F5E5503E013071D0E9A
:10330000BB4B1D5400BF00204FF0E022906107200E
:10331000106100BF05200246B44B0C3B19684FF604
:10332000FF031940B34B0B4343EA0221AF4B0C3B65
:10333000196000BFFFF7E2F9FEF732F8FEF7EEFB87
:10334000FDF79CFEFDF732FEFEF728FE002104206B
:10335000FEF72CFFA8A200210520FDF7D3FCAAA2AE
:1033600004210520FDF7CEFC41F28830FDF764FB17
:10337000FDF7A2FDFEF7BDFBFEF752FAA6A2002163
:103380000520FDF7BFFC2EE1A648006900F0010012
:10339000002851D00A20FDF74FFBA248006900F039
:1033A0000100002848D000BF9E48006900F00100DD
:1033B0000028F9D1FEF79DFB601CC4B2052C00DD8E
:1033C00000244CB994A200210520FDF79BFCFDF7D9
:1033D000F3FCFDF771FD2FE0012C09D192A2002131
:1033E0000520FDF78FFCFDF7FDFCFDF74FFD23E009
:1033F000022C07D1FDF7E0FC8FA200210520FDF78C
:1034000081FC19E0032C05D18EA200210520FDF7D7
:1034100079FC11E0042C05D18EA200210520FDF7D6
:1034200071FC09E08EA202211420FDF76BFC90A232
:1034300004213220FDF766FC062C6FD2DFE804F091
:1034400003235C6F83CA7748406940F08000754968
:1034500048618948006888494968884212D9FDF75F
:10346000EDFC01A8FDF700FD9DF80B2083A10BA842
:10347000FFF7ECF90BAA04211E20FDF743FC002006
:103480007D490860AEE06748406920F080006549EA
:1034900048617D4800687C49496888422BD9FDF71E
:1034A000B7FC01A8FDF7E0FC9DF80B0028B977A256
:1034B00002211E20FDF726FC1AE09DF80B000128D2
:1034C0000DD19DF80F309DF80E2073A10BA8FFF7CA
:1034D000BDF90BAA04211E20FDF714FC08E09DF89D
:1034E0000B00022804D16EA206211E20FDF70AFC63
:1034F00000206549086075E04A48406940F0800056
:10350000484948616848006867494968884204D961
:10351000002065490860FEF797F963E061E04148E3
:10352000406920F080003F494861604800685F4979
:103530004968884206D900205C490860FEF76EFFA2
:10354000FEF7D4FE4EE03748406940F08000354930
:1035500048615748006856494968884239D900206F
:10356000534908601EAB1FAA20A921A8FEF7F4FC4E
:103570009DF87C0000909DF880309DF884204DA13E
:1035800010A8FFF763F910AA06210520FDF7BAFB82
:103590001AAB1BAA1CA91DA8FEF7BCFC9DF86C0069
:1035A00000909DF870309DF8742047A110A8FFF797
:1035B0004DF910AA02210520FDF7A4FB9DF8682013
:1035C00047A110A8FFF742F910AA04210520FDF732
:1035D00099FB07E01348406940F0800011494861B9
:1035E00000E000BF00BFCFE64090020018ED00E011
:1035F00000E400E00000FA0557656C636F6D652D0F
:10360000596F75210000000077616974696E672E3B
:103610002E2E35732E2E2E0048656172742D526148
:103620007465000000000240426C6F6F642D5072A0
:103630006573737265000000537465702D4D6F647F
:103640006500000054656D2D416E642D48756D2038
:103650000000000054696D652D53797374656D0029
:10366000576973682D796F752D676F6F640000005F
:103670004865616C746821001000002072657375E4
:103680006C743A256400000018000020746573749F
:10369000696E672E2E2E000025642F256400000021
:1036A0006661696C210000002000002000000020FD
:1036B0000800002074696D653A253032643A25307F
:1036C00032643A2530326400646174653A323025E0
:1036D0003032642D253032642D25303264000000F4
:1036E0007765656B3A2564002DE9F0412DED048B7B
:1036F00004460E462546374695ED000A1D4880EDE6
:10370000000A95ED010A80ED010A95ED020A80EDAF
:10371000020A90ED000A20EE000AD0ED010A90EDB9
:10372000011A00EE810AD0ED020A90ED021A00EEB5
:10373000810A10EE101A0846FCF7DFFE41EC190B67
:10374000B0EE490AF0EE690AFFF794F8B0EE408A4D
:10375000F0EE608A51EC180BFCF7E2FE06490860B7
:10376000384691ED000AFDF783F9BDEC048BBDE806
:10377000F081000044010020D8000020000000F883
:103780000000000000000033000000000040C0788E
:1037900040C0780000043F04043F040000708888A3
:1037A000FC08300000182020FF211E00F008F080E7
:1037B0006018000000310C031E211E0000F0088874
:1037C000700000001E21232C1927211000120E006A
:1037D000000000000000000000000000000000E009
:1037E000180402000000000718204000000204181E
:1037F000E00000000040201807000000404080F07A
:10380000804040000202010F01020200000000009F
:10381000E0000000000101010F01010100000000B3
:103820000000000000907000000000000000000098
:103830000000000000010101010101000000000082
:103840000000000000303000000000000000000018
:10385000C0380400006018070000000000E01008F5
:103860000810E000000F102020100F0000001010C2
:10387000F8000000000020203F2020000070080811
:103880000808F00000302824222130000030080809
:10389000088870000018202121221C0000008040B0
:1038A00030F8000000060524243F242400F888880E
:1038B000880808000019202020110E0000E0108860
:1038C00088900000000F112020201F000018080819
:1038D000886818000000003E0100000000708808A1
:1038E00008887000001C222121221C0000F008081A
:1038F0000810E0000001122222110F00000000C099
:10390000C000000000000030300000000000008017
:1039100000000000000000E0000000000000804007
:103920002010080000010204081020000040404060
:103930004040400000020202020202000008102083
:1039400040800000002010080402010000704808B8
:10395000088870000000003037000000C030C82820
:10396000E810E000071827282F2817000000C038AB
:10397000E0000000203C23020227382008F8888855
:1039800088700000203F202020110E00C030080861
:1039900008083800071820202010080008F8080838
:1039A0000810E000203F202020100F0008F8888831
:1039B000E8081000203F20202320180008F88888FD
:1039C000E8081000203F200003000000C030080875
:1039D0000838000007182020221E020008F80800FE
:1039E0000008F808203F210101213F20000808F8C5
:1039F000080800000020203F2020000000000808E8
:103A0000F8080800C08080807F00000008F888C0A7
:103A100028180800203F20012638200008F8080058
:103A200000000000203F20202020300008F8F8008F
:103A3000F8F80800203F013E013F200008F830C0A0
:103A40000008F808203F200007183F00E010080891
:103A50000810E0000F10202020100F0008F80808C0
:103A60000808F000203F210101010000E0100808D3
:103A70000810E0000F10282830504F0008F8888800
:103A800088887000203F2000030C302000708808D8
:103A9000080838000038202121221C00180808F8E6
:103AA000080818000000203F2000000008F8080067
:103AB0000008F808001F202020201F000878880038
:103AC00000C83808000007380E01000008F800F8A8
:103AD00000F8080000033E013E030000081868805B
:103AE0008068180820302C03032C30200838C800C8
:103AF000C83808000000203F200000001008080817
:103B0000C83808002038262120201800000000FEB8
:103B1000020202000000007F40404000C030080860
:103B200008083800071820202010080000020202B0
:103B3000FE000000004040407F0000000000040242
:103B4000020400000000000000000000000000006F
:103B5000000000008080808080808080000202045D
:103B60000000000000000000000000000000808055
:103B70008000000000192424123F200010F0008073
:103B800080000000003F112020110E000000008086
:103B900080800000000E1120202011000000808095
:103BA0008090F000001F202020103F200000808027
:103BB00080800000001F242424241700008080E05F
:103BC000909020000020203F2020000000008080F6
:103BD00080808000006B94949493600010F00080CB
:103BE00080800000203F210000203F200080989826
:103BF000000000000020203F202000000000008086
:103C00009898000000C08080807F000010F00000C5
:103C100080808000203F240629302000001010F80A
:103C2000000000000020203F2020000080808080D5
:103C300080808000203F20003F20003F8080008067
:103C400080800000203F210000203F200000808075
:103C500080800000001F202020201F008080008026
:103C60008000000080FF912020110E0000000080E5
:103C700080008000000E11202091FF808080800055
:103C80008080800020203F212000010000008080F3
:103C9000808080000033242424241900008080E0E8
:103CA000808000000000001F2020100080800000A5
:103CB00000808000001F202020103F208080800096
:103CC0008080800000030C300C03000080800080A6
:103CD00080008080010E300C073806010080808053
:103CE000008080000020310E2E3120008080800076
:103CF0000080808000818678180601000080808026
:103D0000808080000021302C222130000000000043
:103D100000FC020200000000013E404000000000E4
:103D2000FF00000000000000FF0000000202FC0095
:103D30000000000040403E010000000000020102BF
:103D4000020402000000000000000000008060F893
:103D5000070004242425262424240400010000FF55
:103D6000000000F94949494949F900000000826210
:103D70001E0AAA4ABA021A9610F0000040417C447A
:103D8000447D4444447D44447D404000404042CC16
:103D900000101010907F9010101010000040201F95
:103DA0002048444241404041424C40000000C1C0D4
:103DB00081C1400101C3C003800241C201C6C006E7
:103DC000800741C70005C1C581C4400401CCC00CB7
:103DD000800D41CD000FC1CF81CE400E000AC1CA77
:103DE00081CB400B01C9C009800841C801D8C01867
:103DF000801941D9001BC1DB81DA401A001EC1DEE7
:103E000081DF401F01DDC01D801C41DC0014C1D4D6
:103E100081D5401501D7C017801641D601D2C012F6
:103E2000801341D30011C1D181D0401001F0C030C6
:103E3000803141F10033C1F381F240320036C1F6E6
:103E400081F7403701F5C035803441F4003CC1FCB6
:103E500081FD403D01FFC03F803E41FE01FAC03A76
:103E6000803B41FB0039C1F981F840380028C1E8A6
:103E700081E9402901EBC02B802A41EA01EEC02EE6
:103E8000802F41EF002DC1ED81EC402C01E4C024D6
:103E9000802541E50027C1E781E640260022C1E2F6
:103EA00081E3402301E1C021802041E001A0C06006
:103EB000806141A10063C1A381A240620066C1A6E6
:103EC00081A7406701A5C065806441A4006CC1ACB6
:103ED00081AD406D01AFC06F806E41AE01AAC06A76
:103EE000806B41AB0069C1A981A840680078C1B866
:103EF00081B9407901BBC07B807A41BA01BEC07EE6
:103F0000807F41BF007DC1BD81BC407C01B4C074D5
:103F1000807541B50077C1B781B640760072C1B2F5
:103F200081B3407301B1C071807041B00050C19045
:103F3000819140510193C053805241920196C056E5
:103F4000805741970055C19581944054019CC05CB5
:103F5000805D419D005FC19F819E405E005AC19A75
:103F6000819B405B0199C059805841980188C048A5
:103F700080494189004BC18B818A404A004EC18EE5
:103F8000818F404F018DC04D804C418C0044C184D5
:103F9000818540450187C047804641860182C042F5
:103FA000804341830041C18181804040C8D7B6A58C
:103FB0009001000000000000000000000000000070
:103FC00000000000C8D7B6A5900000000000000067
:103FD000000000000000000000000000C8D7B6A5E7
:103FE000900200000000000000000000000000003F
:103FF00000000000C8D7B6A5D001000000000000F6
:10400000000000000000000000000000C8D7B6A5B6
:10401000D0000000000000000000000000000000D0
:1040200000000000C8D7B6A5D002000000000000C4
:10403000000000000000000000000000C8D7B6A586
:1040400091000000000000000000000000000000DF
:1040500000000000C8D7B6A57001000000000000F5
:10406000000000000000000000000000C8D7B6A556
:10407000A20200000000000000000000000000009C
:1040800000000000A440000800000020180100000B
:10409000EE280008BC410008180100208804000038
:1040A000FE28000800000000D0070000000000000B
:1040B0006400000000000000E204000000000000B6
:1040C000E8030000000000001400000000000000F1
:1040D0000000000000000000000000002123242553
:1040E000262728292A2B2C2D2E2F303132333435F8
:1040F000363738393A3B3C3D3E3F404142434445E8
:10410000464748494A4B4C4D4E4F505152535455D7
:10411000565758595A5B435D5E5F606162636465E0
:10412000666768696A6B6C6D6E6F707172737475B7
:10413000767778797A7B7C7D7E00D0C5D3AFB4EF7B
:10414000000000000000000000000000000000006F
:10415000000000000000000000000000000000005F
:10416000000000000000000000000000000000004F
:10417000000000000000000000000000000000003F
:10418000000000000000000000000000000000002F
:1041900000000040000000000000000000000000DF
:1041A0006666A63F0000000000000000000000005E
:0C41B00000000000000000000000000003
:040000050800019955
:00000001FF
